:020000040800F2
:10000000404700208502000831230008091D000830
:1000100055220008211900080334000800000000E0
:10002000000000000000000000000000ED010008DA
:10003000251900080000000031020008FD2A000810
:100040009F0200089F0200089F0200089F0200080C
:100050009F0200089F0200089F0200089F020008FC
:100060009F0200089F0200089F0200089F020008EC
:100070009F0200089F0200089F0200089F020008DC
:100080009F0200089F0200089F0200089F020008CC
:100090009F0200089F0200089F0200089F020008BC
:1000A0009F0200089F0200089F0200089F020008AC
:1000B0009F0200089F0200089F0200089F0200089C
:1000C0009F0200089F0200089F0200089F0200088C
:1000D0009F020008E93100089F0200089F02000803
:1000E0009F0200089F0200089F02000800F002F82B
:1000F00000F06DF80AA090E8000C82448344AAF155
:100100000107DA4501D100F062F8AFF2090EBAE852
:100110000F0013F0010F18BFFB1A43F0010318473B
:10012000C4B20000E4B200000A444FF0000C10F822
:10013000013B13F0070408BF10F8014B1D1108BF65
:1001400010F8015B641E05D010F8016B641E01F805
:10015000016BF9D113F0080F1EBF10F8014BAD1C55
:100160000C1B09D16D1E58BF01F801CBFAD505E073
:1001700014F8016B01F8016B6D1EF9D59142D6D3CD
:10018000704700000023002400250026103A28BFF5
:1001900078C1FBD8520728BF30C148BF0B607047F9
:1001A000662909F0BE86642900F0FE80732900F0FC
:1001B000B085002070471FB500F016FE0400002037
:1001C000002108F0DBFDE0601FBD10B510BD00F0A0
:1001D0003BFF1146FFF7EFFF04F0A5FF00F059FFCA
:1001E00003B4FFF7F2FF03BC03F045FA224B196892
:1001F0000868B0E8F00F80F30988BFF36F8F4FF005
:10020000000080F311884EF00D0E704700000000D2
:1002100006480068006880F3088862B661B6BFF3DC
:100220004F8FBFF36F8F00DF00BF00BF08ED00E00E
:10023000EFF30980BFF36F8F0F4B1A6820E9F00FBF
:10024000106008B54FF0500080F31188BFF34F8F56
:10025000BFF36F8F07F02EFD4FF0000080F3118881
:10026000BDE8084019680868B0E8F00F80F3098815
:10027000BFF36F8F704700BF0C010020EFF30580C4
:10028000704700000948804709480047FEE7FEE73D
:10029000FEE7FEE7FEE7FEE7FEE7FEE7FEE7FEE736
:1002A00004480549054A064B704700000D2B00081D
:1002B000ED0000084041002040470020404300205E
:1002C00040430020704710B54C1084EA530404D515
:1002D0004042C1F1000138BF491E1B4204D55242C1
:1002E000C3F1000338BF5B1E00F0FAF914F0804F31
:1002F00004D04042C1F1000138BF491E14F0004F44
:1003000004D05242C3F1000338BF5B1E10BD000091
:100310000FB4044910B503AA029800F0FFFC10BC0A
:100320005DF814FB500000200FB41CB5084B06AA62
:100330007B4469460090059800F0C1FC044600200B
:10034000694600F0CFFC20461CBC5DF814FB0000A1
:10035000B109000070B50C460546012A05D0287881
:10036000800600D5EA69002302E0012305E05B1C5A
:10037000934202D2E05C0028F9D1A869E618C01ABD
:10038000A861286A184428622846AFF3008004E078
:10039000D5E9012114F8010B9047B442F8D328465F
:1003A000AFF3008070BD00002DE9F0410646002447
:1003B00010687529314616A510D0AFF300800028CB
:1003C00002DA404213A507E031688A0701D512A579
:1003D00002E0490704D511A5012401E0AFF3008034
:1003E00000210A2206F1240709E0B0FBF2FCB0FB71
:1003F000F2F302FB1C00303078541846491C0028E8
:10040000F3D123462A463046BDE8F04100F0EAB970
:10041000000000002D0000002B0000002000000064
:100420002DE9F05F894604464FF0000ADFF874B109
:10043000FB44C0F820A02046E1688847002874D01B
:10044000252806D0D4E901219047206A401C20626B
:10045000F1E700265F462046E168884720280546E8
:1004600007DB312D05D2781910F8200C08B10643AE
:10047000F1E7B00701D526F00406C4F81CA0002758
:10048000C4F818A02A2D09D0284603F0EDF838B397
:1004900004EB8708303DC8F8185019E059F8041BE0
:1004A000204604EB87029161E1688847012F0546E9
:1004B00018D1E069002820DA26F020061DE0D8F8DF
:1004C000180000EB800005EB40003038C8F8180039
:1004D0002046E1688847054603F0C6F80028EED1BB
:1004E000012F0AD02E2D08D12046E16888477F1CB5
:1004F0000546022F46F02006C4DBA069002803DA77
:10050000404246F00106A061F00701D026F0100637
:100510006C2D0BD0682D09D04C2D39D06A2D35D0DB
:10052000742D35D07A2D33D016E038E0E1682F46AF
:1005300020468847B842054609D16C2F26D04FF493
:100540008060E168064320468847054604E06C2F3A
:100550001AD04FF4807006430DB3A5F1410019285D
:1005600002D8203546F400664A46294620462660D1
:100570004E46FFF715FE80B101280BD0F61D26F080
:10058000070000F1080956E74020E4E78020D8E79B
:100590000020D6E706F104094DE7284652E7206A15
:1005A000BDE8F09F1AAE000040EA010310B59B07BA
:1005B0000FD1042A0DD310C808C9121F9C42F8D0CD
:1005C00020BA19BA884201D9012010BD4FF0FF307E
:1005D00010BD1AB1D30703D0521C07E0002010BD94
:1005E00010F8013B11F8014B1B1B07D110F8013B20
:1005F00011F8014B1B1B01D1921EF1D1184610BD01
:1006000010B5431C02E010F8011B71B18107FAD14B
:100610004FF0013202C88C1A8C4314EAC211F9D08F
:10062000C01A0A0603D0C01E10BDC01A10BD0A04AD
:1006300001D0801E10BD0902FCD0401E10BD032A4F
:1006400040F2308010F0030C00F0158011F8013BEF
:10065000BCF1020F624498BF11F801CB00F8013BD6
:1006600038BF11F8013BA2F1040298BF00F801CB9A
:1006700038BF00F8013B11F0030300F06183083A32
:10068000C0F0088051F8043B083A51F804CBA0E8C8
:100690000810F5E7121D5CBF51F8043B40F8043B1D
:1006A000AFF30080D20724BF11F8013B11F801CB52
:1006B00048BF11F8012B24BF00F8013B00F801CB23
:1006C00048BF00F8012B704702F0FF0343EA032202
:1006D00042EA024200F068BB7047704770477047BB
:1006E00053EA020C00F069802DE9F04B4FF0000650
:1006F000002B1FBFB3FA83F503FA05F424FA05F6BD
:100700005E4012BF1643B2FA82F502FA05F4C5F153
:1007100020051EBF22FA05FC44EA0C04203556EAE7
:10072000044C4FEA144418BF641C4FF000084FF00B
:100730000009904271EB030C39D3002919BFB1FABB
:1007400081F701FA07F6B0FA80F700FA07F6C7F169
:1007500020071EBF20FA07FC46EA0C062037B6FB2E
:10076000F4FCA7EB0507103F07F01F0BCBF12006A9
:100770000CFA0BFB2CFA06F644BFB3460026202FDA
:10078000A4BF5E464FF0000B5BEA060C08BF4FF0BB
:10079000010B19EB0B09ABFB027C48EB0608C01BF5
:1007A00006FB02CC0BFB03CC71EB0C01C1E70B4643
:1007B000024641464846BDE8F08B13B54FF00000B5
:1007C0004FF00001AFF30080BDE81C40704710B54A
:1007D00000F00EFB006810BD10B5044600F008FBE9
:1007E000046010BD2DE9F0470D4699469246044637
:1007F00000F124080168880604D5E06921F01001A1
:10080000216000E00120A84201DD471B00E0002735
:10081000A1697A1902EB0900081AA0612078C006C4
:1008200002D42046AFF30080002608E0D4E901217D
:100830001AF806009047206A401C761C20624E453C
:10084000F4DB2078C0060AD52046AFF3008006E02E
:10085000D4E9012130209047206A401C2062381ED4
:10086000A7F10107F4DC07E0D4E9012118F805003D
:100870009047206A401C2062281EA5F10105F3DC88
:100880002046AFF300802078000602D50220BDE8A4
:10089000F0870120FBE770472DE9FF4F0C461E460D
:1008A0004FF0FF378BB0D2E90001DDF860800A908D
:1008B0008A46C1F30A5505B93D46002108464FF066
:1008C0000000BAF1000F00F4400005DA00EB8000F0
:1008D0004FF4400101EA50004FEA9059B9F1010F7D
:1008E00000DDB9460A9850EA4A000ED044F610508E
:1008F000A5F2FF3545432F14B8F1000F1ED0754205
:10090000291E1EDDC9F100021CE0B8F1010F4FF0F5
:10091000000001D0302103E0F24305E02154401CE7
:10092000B042FBDB30460022002121540B99C1F874
:100930000880C1E900200FB0BDE8F08FBD1B6D1C21
:10094000DEE74A4600DA694206A800F0DBFA06ABA9
:1009500093E8070003AB83E8070050460A9900F0CC
:10096000E1FB8DE80700A0F500501F3800900398C8
:10097000002D0ADD42F21F014A460844002303A964
:100980000390684600F04AFE09E0A0F500504A4690
:100990001F38002303A90390684600F054FE8DE839
:1009A00007000004000C03D04FF0FF30410800E0C6
:1009B0001046B8F1000F03D00022009215461EE049
:1009C000751E05D400F018FA303262556D1EF9D547
:1009D000B3460122084302D000227F1C04E02078A5
:1009E000302801D100227F1E002A099784D01DE003
:1009F000112D07DA00F000FA303262556D1C50EA12
:100A00000102F5D1084302D00098C8B10EE00021E0
:100A1000681E05E0235C625C63542254401E491C3E
:100A20008142F7DBAB46A81B401E0990002004F86A
:100A30000B000B98099AC0F80880C0E9002B7AE7F0
:100A400011264FF0000857E72DE9F04F884604467D
:100A5000D21D22F0070191B0D1E90001CDE90A01D0
:100A600002F086FD02460B98C00F01D02D2007E052
:100A70002068810701D52B2002E0202101EAC00077
:100A8000032A099001D0072A05DB03464146204688
:100A900000F0F8F90BE12078800601D5E06900E06C
:100AA0000620B8F1650F814606D0B8F1660F18D060
:100AB000B8F1670F70D131E00020B9F1110F00904B
:100AC00001DB112301E009F101030AAA01A90CA825
:100AD000FFF7E2FEDDE90C70002609F1010583460F
:100AE00047E001204B4600904FF000470AAA01A9B9
:100AF0000CA8FFF7D1FEDDE90DB00C995D4600268C
:100B000010B909F101000D18B9EB050003D4C0F1CB
:100B1000FF3609F10105A5EB09002BE0B9F1010F42
:100B200001DA4FF001090020B9F1110F0090484699
:100B300001DD112300E003460AAA01A90CA8FFF772
:100B4000ABFEDDE90C704D46002683462078000799
:100B50000AD4AB4500DA5D4601A8012D04DD411938
:100B600011F8011C302907D04F4502DA17F1040FA4
:100B700004DA012082460FE06D1EEEE7002F02DC52
:100B8000ED1B3E4403E0781CA84200DD7D1CB81B31
:100B900000F1010A4FF000472078000703D4AA456E
:100BA00001DB4FF0FF3A0021B7F1004F0DF1430890
:100BB0008DF8431024D002202B23002F01DA7F422E
:100BC0002D230A21021EA0F1010000DC5FB197FB7A
:100BD000F1FC97FBF1F201FB1C7C17460CF1300C89
:100BE00008F801CDEEE7A8F101000370218809059E
:100BF00001D5452100E06521A0F1010800F8011CA4
:100C000009980FA9A1EB0807FF1D00B101204119A8
:100C100001EBEA70A1693844081A401EA0612078EF
:100C2000C00602D42046AFF30080099828B1D4E969
:100C300001219047206A401C20622078C00622D5FE
:100C40002046AFF300801EE0002E04DBB34502DD3A
:100C500001A8805D00E03020D4E901219047206A9E
:100C6000401C2062761CAAF101005FEA000A0AD14A
:100C700000F0BAF8C0680168405CD4E901219047EF
:100C8000206A401C2062281EA5F10105DCDC07E07B
:100C9000D4E9012118F8010B9047206A401C20621A
:100CA000381EA7F10107F3DC2046AFF300800320D4
:100CB00011B041E601694A1C02610878704700B52D
:100CC0008FB0CDE901310021059105497944CDE985
:100CD000031011466846FFF7A3FB0FB000BD0000EC
:100CE000E5FFFFFF0A6802F8010B0A60704710B5C4
:100CF000436913B1AFF3008001E0FFF72BFB012044
:100D000010BD127800F124010A7000224A700122FD
:100D1000EDE711684FF0FF32E9E70000074B70B5CF
:100D20000D467B44FFF7CBFF0446284600F05CF9F4
:100D300010B14FF0FF3070BD204670BD0B3D00007C
:100D400010B5203AC0F00B80B1E81850203AA0E866
:100D50001850B1E81850A0E81850BFF4F5AF5FEA9A
:100D6000027C24BFB1E81850A0E8185044BF18C94D
:100D700018C0BDE810405FEA827C24BF51F8043BF4
:100D800040F8043B08BF7047D20728BF31F8023B48
:100D900048BF11F8012B28BF20F8023B48BF00F8DC
:100DA000012B70474FF000020429C0F0128010F0B0
:100DB000030C00F01F81CCF1040CBCF1020F18BF32
:100DC00000F8012BA8BF20F8022BA1EB0C0100F0CA
:100DD00011B95FEAC17C24BF00F8012B00F8012B98
:100DE00048BF00F8012B704700487047FC400020C6
:100DF00000487047DC40002030B5B0F10A024FEAED
:100E0000900E71F100034EEA817EB0EB0E0061EBB3
:100E100091014FEA101E4EEA017E10EB0E0041EBED
:100E200011114FEA102E4EEA016E10EB0E0041EB4D
:100E300011214FEA104E4EEA014E10EB0E0041EB2D
:100E40001141401841F100014FEAD00040EA4170E1
:100E50004FEAD10110EB80054FEA810444EA907417
:100E600044EB01046D1944EB0404521BA3414FF001
:100E7000000348BF0A3200D530BD401C41F10001DB
:100E800030BD00002DE9F0411F46044603260168ED
:100E9000072A01F4006004DB08B116A505E016A5D9
:100EA00003E008B115A500E015A521F010002060B1
:100EB000A069C01EA0610FB1401EA0612046AFF323
:100EC00000804FB1D4E9012138469047206A401C88
:100ED0002062C01C206206E0206AFAE7D4E9012102
:100EE00015F8010B9047761EF8D22046AFF300802C
:100EF000BDE8F0814E414E006E616E00494E4600E5
:100F0000696E66002DE9F047814616468AB035487D
:100F100078440DC88DE80D0032487844801C03AC3D
:100F20000DC884E80D0041F69B300844372190FB42
:100F3000F1F290FBF1F5A5F1800501FB12041B3CD9
:100F400002D56442012000E00020DFF898A080462E
:100F50000027FA44AAF1BE0A0EE0E0070AD03246A2
:100F6000684607EB470101230AEB810100F06BFBA8
:100F70008DE8070064107F1C002CEED1194F7F44D0
:100F8000AE3F19E0E80715D007EB04100DF1180A81
:100F900090E80E008AE80E00C068F04201D198196E
:100FA00008903246012306A903A800F04CFB03ABCE
:100FB00083E807006D10641C002DE3D14FF001039E
:100FC00032466946B8F1000F03A802D000F026FBB4
:100FD00001E000F038FBC9E90001C9F808200AB0B7
:100FE000BDE8F087B8A40000007B00F080007047E7
:100FF0004FF0000200B5134694469646203922BFB2
:10100000A0E80C50A0E80C50B1F12001BFF4F7AFFC
:10101000090728BFA0E80C5048BF0CC05DF804EBDE
:10102000890028BF40F8042B08BF704748BF20F84C
:10103000022B11F0804F18BF00F8012B7047000001
:1010400000487047DC4000207546FFF7F9FFAE46C8
:1010500005006946534620F00700854618B020B5C4
:10106000FFF71EF9BDE820404FF000064FF00007E3
:101070004FF000084FF0000B21F00701AC46ACE840
:10108000C009ACE8C009ACE8C009ACE8C0098D46AD
:10109000704710B50446AFF300802046BDE810400D
:1010A000FFF79EB84FF0013C50F8042B51F8043B79
:1010B0009A4221D1A2EB0C03934313EACC1317D12C
:1010C00050F8042B51F8043B9A4215D1A2EB0C03C3
:1010D000934313EACC130BD150F8042B51F8043B83
:1010E0009A4209D1A2EB0C03934313EACC13DBD051
:1010F0004FF00000704700BFD01A01BAB1FA81F179
:1011000001F0180122FA01F0CB40C1F12001DBB25D
:10111000C0B2C01A2CFA01F3D11A914311EAC311DB
:10112000E6D170475FEA400C08BF91F0000F4FEA2C
:101130008C234FEAC12243EA51514FEA1C5018BF99
:1011400000F5F0404FEA300018BF41F000415FEA7F
:101150006C5C00F02980BCF1FF3F08BF40F080408C
:101160007047130C06BF12044FF0100C4FF0000C28
:10117000130E04BF12020CF1080C130F04BF12016E
:101180000CF1040C930F04BF92000CF1020CD30F6E
:1011900004BF52000CF1010C11464FF00002A0F107
:1011A0001F00A0EB0C00704711F0004F08BF704704
:1011B00031F000413FF4D5AF0B0C06BF09044FF0EE
:1011C000100C4FF0000C0B0E04BF09020CF1080CC0
:1011D0000B0F04BF09010CF1040C8B0F04BF890035
:1011E0000CF1020CCB0F04BF49000CF1010CCCF147
:1011F0002003A0EB0C0022FA03F302FA0CF241EAFE
:10120000030100F10100704720F07F4C80EA0300E9
:1012100023F07F47ACEB070303F57C5300F000405D
:1012200003F1FF032DE980494FEA154B09B44FEA5A
:10123000144325EA0B4E24EA03480FF2042606EB7A
:10124000132749083E785FEA320203FB0667C7F5B9
:10125000000707FB06F64FEA54374FEAD64606F179
:10126000020607FB066CCCF1005C4FEA1C472CEA37
:10127000074C07FB06F40CFB06F504EB15464FEA9A
:10128000961634BF00204FF000404FEAD13706FBDE
:1012900007FC4FEA1C4C0CFB0BF7D21B03FB0CF7B3
:1012A00061EB07010CFB0EF7B0EB074072EB174246
:1012B0000CFB08F734BFA2EB0742B2EB074261EB2D
:1012C00017414FEA0C444FEA910706FB07FC4FEA2F
:1012D0001C4C0CFB0BF7B0EBC74072EB573203FB17
:1012E0000CF734BFA2EBC742B2EBC74261EB5731F8
:1012F0000CFB0EF7B0EBC70072EB57720CFB08F754
:1013000034BFA2EBC702B2EBC70261EB5771039F78
:101310004FEA816141EA921104EBCC044FEAD137E4
:101320004FEA826206FB07FC42EA90124FEA8060B5
:101330004FEA1C4C0CFB0BF7D21B03FB0CF761EBC9
:1013400007010CFB0EF7B0EB074072EB17420CFBEA
:1013500008F734BFA2EB0742B2EB074261EB17413B
:101360004FEA8C554FEA910704EB9C2406FB07FCDF
:101370004FEA1C4C0CFB0BF7B0EBC74072EB57323B
:1013800003FB0CF734BFA2EBC742B2EBC74261EBE1
:1013900057310CFB0EF7B0EBC70072EB57720CFB2A
:1013A00008F734BFA2EBC702B2EBC70261EB57717B
:1013B00015EB4C254FEA816141EA92114FEA8262B6
:1013C0004FEAD13742EA901206FB07FC44F10004D1
:1013D0004FEA80604FEA1C4C0CFB0BF7D21B03FB5F
:1013E0000CF761EB07010CFB0EF7B0EB074072EB5B
:1013F00017420CFB08F734BFA2EB0742B2EB0742DF
:1014000061EB174115EB1C154FEA813141EA92411E
:101410004FEA823242EA90424FEA80304FEA0C763D
:1014200044F1000448EA03434EEA0B484FF0000E33
:10143000B2EB080C71EB030724BF624639464EEB52
:101440000E0E4FF0000B0018524149414BEB0B0BB5
:10145000B2EB080C71EB03077BF1000B24BF624673
:1014600039464EEB0E0E4FF0000B00185241494129
:101470004BEB0B0BB2EB080C71EB03077BF1000B92
:1014800024BF624639464EEB0E0E51EA020718BFE2
:1014900046F0010616EB0E7655F1000254F10001FC
:1014A00003D5BDE88901BDE80088BDE88901BDE834
:1014B0000048B619524141EB0101A3F10103704705
:1014C00080807F7E7D7C7B7A797877767675747381
:1014D000727171706F6E6E6D6C6C6B6A6A69686840
:1014E000676666656464636362616160605F5F5ED6
:1014F0005E5D5D5C5C5B5B5A5A595958585757564C
:1015000056555555545453535252525151505050B0
:101510004F4F4F4E4E4D4D4D4C4C4C4B4B4B4A4A02
:101520004A49494948484847474747464646454546
:10153000454444444443434343424242424141417F
:10154000002B9C4630D477002BD01CB54FEA3707D0
:1015500003B44FF010004FF01001BAF1000F06D0A5
:10156000BCF1000FDCBF40F0080040F008014FF074
:1015700000000FBCBDE810400BF1010BBBF1010FE7
:1015800008BF5FEA170722BF12F1010211F1010142
:101590004FF0004143F1000300F0004043EA000037
:1015A0007047F9D35708D0E746EA064613F1400FD3
:1015B0004FEA16461FDD13F1200FDFBF16430A4620
:1015C000002120335B42BED0C3F1200746EA064625
:1015D00002FA07F74FEA164646EA0706C3F1200764
:1015E00022FA03F201FA07F721FA03F14FF00003A0
:1015F00042EA0702A7E746EA020646EA06464FEA3B
:10160000164646EA0106BCBF46EA0646360C4FF0CF
:1016100000034FF000024FF0000194E72DE9804CE9
:101620009A46934670B491E8380007C831EA400CF6
:1016300048BF34EA430C03D5FFF7E6FDFFF780FF10
:10164000F0BCBDE8008C2DE9804C9A46934670B4FE
:1016500091E8380007C810F0804F08BF13F0804FA2
:1016600003D100F005F8FFF76BFFF0BCBDE8008C7C
:1016700020F07F4780EA030023F07F4C07EB0C0348
:10168000A3F57C5300F00040A3F1FE0392F0000F9D
:1016900000F0B38095F0000F00F077802DE901494C
:1016A0004FEA11404FEA144621EA004800FB06FCCD
:1016B00024EA064708FB06F607FB08F800FB07F7D5
:1016C00018EB06484CEB164C4FEA124B18EB074848
:1016D0004FEA15464CEB174022EA0B4E0BFB06FC7B
:1016E00025EA06470EFB06F607FB0EFE0BFB07F787
:1016F0001EEB064E4CEB164C4FF000061EEB074E51
:101700004CEB174B18EB0B0840F1000018EB0E0BDD
:1017100058EB000840F100008F1A4FF000013CBF69
:10172000C943661B14BFB5EB040C00213CBFC94381
:10173000F61B4FEA17444EEA8E0E27EA04454FEA9D
:101740001C4704FB07622CEA074C05FB07F70CFB60
:1017500005F604FB0CFC16EB074642EB174216EBB2
:101760000C4642EB1C421BEB060658EB02024141C1
:1017700046EA9E0601D5BDE80189B619524141EB02
:101780000101A3F10103BDE801894FEA14454FEAC5
:10179000114724EA054621EA074C05FB07F406FB3E
:1017A00007F70CFB06F105FB0CFC11EB074144EBC2
:1017B00017444FEA124711EB0C4144EB1C4422EA58
:1017C000074C05FB07F206FB07F70CFB06F605FBCB
:1017D0000CFC16EB074642EB174216EB0C4642EBAD
:1017E0001C456A1854F1000148BF7047B6195241B0
:1017F00041EB0101A3F10103704795F0000F37D0D1
:101800004FEA11424FEA144721EA024624EA074C04
:1018100002FB07F106FB07F70CFB06F402FB0CFCCE
:1018200014EB074441EB17414FEA154714EB0C4406
:1018300041EB1C4125EA074C02FB07F506FB07F7C5
:101840000CFB06F602FB0CFC16EB074645EB1745B6
:1018500016EB0C4645EB1C42121951F1000148BF32
:101860007047B619524141EB0101A3F101037047E2
:101870004FEA14454FEA114724EA054621EA074C8E
:1018800005FB07F106FB07F70CFB06F24FF000061D
:1018900005FB0CFC12EB074241EB174112EB0C422B
:1018A00051EB1C4148BF7047921841EB0101A3F175
:1018B000010370472DE9FC5F04460D4600212046D8
:1018C00008F0AFFA01902946002008F0B5FA009020
:1018D00010480168009808F0A7F982460E4908F000
:1018E00011F880460D48006880F0004B0A495846C0
:1018F00008F008F88246019908F096F981464146B9
:1019000008F09AFA074608F0F3F806463046BDE8B4
:10191000FC9F0000E80000200000C842E400002016
:1019200000BFFEE77047000000B587B0012102202C
:1019300000F04CFF0121042000F058FF48208DF8F2
:101940001B00C020ADF8180003208DF81A0006A96E
:10195000204800F0ABF80020ADF81200ADF80E0002
:101960004FF6FF70ADF810000020ADF80C008DF8B8
:10197000140003A9184801F091FB684601F09CFA95
:101980000020ADF800000F20ADF8080069461248AD
:1019900001F03CFA0420ADF800000F20ADF808007B
:1019A00069460D4801F032FA00231A4603210A481D
:1019B00001F008FA01221146074801F086FA0021D9
:1019C000054801F03DFB0121034801F0EFF907B0A4
:1019D00000BD0000000801400004004000B587B0D1
:1019E0000121C80200F002FF0121042000F0FEFEE8
:1019F00048208DF81B004FF44070ADF8180003200C
:101A00008DF81A0006A91C4800F050F80020ADF827
:101A10001200ADF80E004FF6FF70ADF81000002078
:101A2000ADF80C008DF8140003A9144801F036FB42
:101A3000684601F041FA0020ADF800000F20ADF833
:101A4000080069460D4801F0E1F90420ADF80000F6
:101A50000F20ADF808006946084801F0D7F90023C7
:101A60001A460321054801F0ADF90121034801F0B0
:101A70009DF907B000BD000000080140002C0140A6
:101A800010B500F029F900F0EFF80649096808449C
:101A90000449086000F004F9034909680844024950
:101AA000086010BDC0000020C40000202DE9F041F6
:101AB000024600250026002000230024002791F87C
:101AC00003C00CF00F0591F803C00CF0100CBCF132
:101AD000000F03D091F802C04CEA050591F800C050
:101AE000BCF1000F31D0146800202BE04FF0010C46
:101AF0000CFA00F3B1F800C00CEA03069E4220D1B4
:101B000083004FF00F0C0CFA03F7BC4305FA03FCFB
:101B10004CEA040491F803C0BCF1280F06D14FF041
:101B2000010C0CFA00FCC2F814C00AE091F803C0E2
:101B3000BCF1480F05D14FF0010C0CFA00FCC2F8C3
:101B400010C0401C0828D1D31460B1F800C0BCF10B
:101B5000FF0F34DD546800202EE000F1080C4FF038
:101B6000010808FA0CF3B1F800C00CEA03069E4223
:101B700021D183004FF00F0C0CFA03F7BC4305FA98
:101B800003FC4CEA040491F803C0BCF1280F05D112
:101B900000F1080C08FA0CF8C2F8148091F803C0A0
:101BA000BCF1480F07D100F1080C4FF0010808FA0A
:101BB0000CF8C2F81080401C0828CED35460BDE851
:101BC000F0810000F0B50A46002300240021002522
:101BD00000F00046B6F1004F02D11D4EF16901E060
:101BE0001B4E7168C0F3034583B200F44016B6F58E
:101BF000401F08D121F07061154E766826F070669E
:101C0000134F7E6012E000F48016B6F5801F06D1F7
:101C1000032606FA05F4A14341F0706106E0460D83
:101C2000360103FA06F6B14341F0706122B1460D68
:101C3000360103FA06F6314300F00046B6F1004FD4
:101C400002D1034EF16101E0014E7160F0BD000070
:101C50000000014041617047016170470AB10161B4
:101C600000E041617047000010B50B480068401C5F
:101C700009490860094801F0C6F804B20649086835
:101C800000EBD0714910A0EB410119B900210348C4
:101C900001F0D6F9204610BD580000200004004095
:101CA00010B50B480068401C09490860094801F05C
:101CB000AAF804B20649086800EBD0714910A0EBFD
:101CC000410119B90021034801F0BAF9204610BDBD
:101CD0005C000020002C014010B5054A054906486B
:101CE00003F078FA054A0649064800F00FF810BDDF
:101CF000D8000020D4000020D0000020E000002008
:101D0000DE000020DC00002000BFFEE72DE9FC41E2
:101D100004460D4616466B4606224321682000F015
:101D2000C3F90746BFB99DF801009DF8001040EACD
:101D3000012000B220809DF803009DF8021040EAC7
:101D4000012000B228809DF805009DF8041040EAAB
:101D5000012000B230803846BDE8FC8110B500207B
:101D60000E4908600E48006820F470400C49086075
:101D70000846006840F44050086000200949C1F856
:101D8000AC0100F011F801200449086000F00CF8E3
:101D900000200449C1F8A80110BD0000A88121421B
:101DA000040C01400080214210B5022002F042F8EC
:101DB00010BD000008B50121082000F017FD4FF408
:101DC0004060ADF8000010208DF8030003208DF86E
:101DD000020069460448FFF769FE4FF4406102487B
:101DE000FFF73AFF08BD0000000C014010B50020CD
:101DF0000E4908600E48006820F470400C490860E5
:101E00000846006840F44050086001200949C1F8C4
:101E1000AC01FFF7C9FF012004490860FFF7C4FFC8
:101E200000200449C1F8A80110BD0000A88121428A
:101E3000040C01400080214270B50546002416487C
:101E4000006820F47040144908600846006840F4B7
:101E500000400860002614E0002010490860FFF7E9
:101E6000A3FF01200E49C1F8A8016006040E0B482B
:101E70007C38006808B1601CC4B2FFF795FF701C85
:101E8000C6B2082EE8DB15B9FFF7B0FF01E0FFF797
:101E900065FF204670BD0000040C0140A88121426E
:101EA0000080214270B504461248006820F470405A
:101EB000104908600846006840F44050086000205F
:101EC0000D490860002512E0E0090B49091D086072
:101ED0006006040E01200949C1F8A801FFF764FF5C
:101EE000002005490860FFF75FFF681CC5B2082D98
:101EF000EADB70BD040C0140A88121420080214230
:101F000010B50E48006820F470400C49086008467F
:101F1000006840F440500860012009490860094900
:101F2000C1F8A801FFF740FF002005490860FFF74E
:101F30003BFF00200349C1F8A80110BD040C01407B
:101F4000AC8121420080214210B50E48006820F487
:101F500070400C4908600846006840F44050086032
:101F60000020094908600949C1F8AC01FFF71CFFCE
:101F70000120054908600549C1F8AC01FFF714FFCD
:101F800010BD0000040C0140A881214200802142C4
:101F900010B500241448006820F47040124908600D
:101FA0000846006840F40040086001200F490860BE
:101FB000FFF7FAFE01200E49C1F8A801FFF7F4FE71
:101FC00007E0601CC4B2FA2C03DDFFF7BDFF01205F
:101FD00010BD0648803800680028F2D10349091F67
:101FE000086000BFF4E70000040C0140AC8121420E
:101FF0000080214210B5FFF7DDFE80216B2000F04C
:10200000D7F8642001F0F6FE00216B2000F0D0F834
:10201000032000F08BF8002000F080F8C82000F0CA
:10202000AAF80021382000F0C3F800216A2000F04F
:10203000BFF80021232000F0BBF88021372000F0FA
:10204000B7F8752000F013F80446682C0BD1012175
:102050006B2000F0ADF800216C2000F0A9F83220D0
:1020600000F089F801E0012010BD0020FCE770B508
:102070000446FFF745FFD020FFF714FFFFF788FF66
:102080002046FFF70FFFFFF783FFFFF739FFD1204F
:10209000FFF708FFFFF77CFF0020FFF7CDFE0546A6
:1020A000FFF752FF284670BD2DE9F04106460F4666
:1020B00014461D46FFF724FF002141EA4601C8B23D
:1020C000FFF7F0FEFFF764FF20B1FFF73DFF0120AF
:1020D000BDE8F0813846FFF7E5FEFFF759FFFFF74F
:1020E0000FFF012101EB4601C8B2FFF7DBFEFFF74E
:1020F0004FFF0DE0012C04D10020FFF79DFE28705A
:1021000003E00120FFF798FE2870601EC4B26D1C2A
:10211000002CEFD1FFF718FF0020D9E710B50446D7
:10212000E006010E1C2000F043F810BD10B5044677
:10213000E006010E1B2000F03BF810BD70B5044610
:102140000025BC2C01DB012510E0622C01DB0225FF
:102150000CE02A2C01DB032508E0142C01DB04250C
:1021600004E00A2C01DB052500E0062529461A209B
:1021700000F01EF870BD70B50446B4F57A7F01DD3D
:102180004FF47A74042C00DA04244FF47A7090FB34
:10219000F4F0401EC5B22946192000F009F80546A2
:1021A000264604EBD671C1F34F00FFF7C7FF70BDA1
:1021B00070B505460C46FFF7A3FED020FFF772FE70
:1021C000FFF7E6FE18B1FFF7BFFE012070BD2846FD
:1021D000FFF768FEFFF7DCFE2046FFF763FEFFF720
:1021E000D7FE18B1FFF7B0FE0120EFE7FFF7ACFE16
:1021F0000020EBE72DE9F04105460E4617469846CC
:10220000FFF77EFE002141EA4501C8B2FFF74AFE12
:10221000FFF7BEFE20B1FFF797FE0120BDE8F08179
:102220003046FFF73FFEFFF7B3FE00240CE018F83E
:102230000400FFF737FEFFF7ABFE18B1FFF784FE8F
:102240000120EBE7601CC4B2BC42F0DBFFF77CFE70
:102250000020E3E700BFFEE710B50446B4F5E15FF8
:1022600002DD4FF4E15403E014F5E15F00DA0D4CB8
:10227000002C0BDB04210C48FFF7EEFC08210A4878
:10228000FFF7E8FC204600F091FA0AE00421064836
:10229000FFF7E0FC08210448FFF7DEFC604200F095
:1022A00085FA10BDE0E3FFFF0008014010B50446C9
:1022B000B4F5E15F02DD4FF4E15403E014F5E15FB2
:1022C00000DA0D4C002C0BDB10210C48FFF7C2FC90
:1022D00020210A48FFF7C0FC204600F06FFA0AE010
:1022E00010210648FFF7B8FC20210448FFF7B2FC94
:1022F000604200F063FA10BDE0E3FFFF0008014018
:1023000008B50121042000F071FA10208DF80300B7
:102310003C20ADF8000003208DF802006946034818
:10232000FFF7C4FB00F0C4F908BD0000000801403D
:102330007047000070B5002100230F22C47804B359
:10234000154C246804F4E064C4F5E064210AC1F18A
:102350000403CA40447804FA03F18478144021430A
:1023600009010E4C0678A155047804F01F050124DC
:10237000AC4005786D11AD0005F1E025C5F80041D0
:1023800009E0047804F01F050124AC40044D0678F0
:10239000761145F8264070BD0CED00E000E400E049
:1023A00080E100E002490143024A116070470000E9
:1023B0000000FA050CED00E070B500240EE00021ED
:1023C000204600F0E6F8002504E0002000F060F967
:1023D000681CC5B2802DF8DB601CC4B2082CEEDB93
:1023E00070BD000008B50121082000F0FFF914209D
:1023F0008DF8030003208DF802004FF48070ADF8D3
:10240000000069460A48FFF751FB4FF40070ADF831
:10241000000069460648FFF749FB01221102044803
:10242000FFF71CFC012251020148FFF717FC08BD11
:10243000000C014070B50546002415E080202041C5
:1024400000EA05024FF400710E48FFF707FC012275
:1024500011020C48FFF702FC00224FF4807109487A
:10246000FFF7FCFB601CC4B2082CE7DB0122110261
:102470000448FFF7F3FB00224FF480710148FFF797
:10248000EDFB70BD000C014010B5012251020A485D
:10249000FFF7E4FB012211020748FFF7DFFB0022F0
:1024A0004FF400710448FFF7D9FB00224FF480710C
:1024B0000148FFF7D3FB10BD000C014010B500220E
:1024C0004FF400710648FFF7C9FB012211020448CE
:1024D000FFF7C4FB012251020148FFF7BFFB10BD0B
:1024E000000C014070B5002406E0002500E06D1CE2
:1024F000B5F57A7FFBD3641CB4F57A7FF5D3FFF78B
:1025000071FFAE2000F0B4F8D52000F0B1F88020C3
:1025100000F0AEF8A82000F0ABF83F2000F0A8F8DB
:10252000D32000F0A5F8002000F0A2F8402000F031
:102530009FF8A12000F09CF8C82000F099F8DA205C
:1025400000F096F8122000F093F8812000F090F847
:10255000CF2000F08DF8D92000F08AF8F12000F0AB
:1025600087F8DB2000F084F8302000F081F8A42008
:1025700000F07EF8A62000F07BF88D2000F078F8BF
:10258000142000F075F8AF2000F072F8FFF714FF88
:1025900070BD70B505460C4645F0B00000F068F817
:1025A000102141EA141000F063F804F00F0000F06D
:1025B0005FF870BD2DE9F04105460E461746721EC4
:1025C000D206110E6A1E5206100EFFF7E2FF00241B
:1025D00009E0A7F12001134A02EB0111085D00F0A8
:1025E00057F8601CC4B2082CF3DB721ED206110E21
:1025F0006A1E012303EB4202D0B2FFF7CAFF002498
:102600000BE0A7F12001074A02EB011204F10801D7
:10261000505C00F03DF8601CC4B2082CF1DBBDE852
:10262000F08100005EAC00082DE9FE4381460D46B6
:102630001646304607F0CCF807463A460B460AA144
:102640006846FDF771FE002407E01DF804202819F4
:10265000C1B24846FFF7AEFF641C6846FDF7D0FFE5
:10266000A042F2D8BDE8FE83252E316600000000AE
:1026700010B50446FFF708FF7820FFF7DBFE0020C7
:10268000FFF7D8FE2046FFF7D5FEFFF717FF10BD76
:1026900010B50446FFF7F8FE7820FFF7CBFE402088
:1026A000FFF7C8FE2046FFF7C5FEFFF707FF10BD86
:1026B00000B589B00121084600F088F80121042006
:1026C00000F094F818208DF823000320ADF82000C6
:1026D0008DF8220008A92448FFF7E8F94FF0804060
:1026E00000F0FCFB0020ADF81A00ADF8160041F632
:1026F0001F40ADF818000020ADF814008DF81C0044
:1027000005A94FF0804000F0C9FC01A800F08AFC48
:102710006020ADF804000020ADF80E000120ADF8F7
:1027200006000020ADF80A0001A94FF0804000F03B
:10273000DBFB01A800F076FC6020ADF8040000206F
:10274000ADF80E000120ADF806000020ADF80A003B
:1027500001A94FF0804000F013FC0121880700F030
:1027600025FB09B000BD0000000801402DE9F04143
:1027700004460D4616462746AF4200DD2F46B742B7
:1027800000DA37460848006807F0B2F9B0F10008EF
:1027900001DB404601E0C8F10000322800DB0027E1
:1027A0003846BDE8F0810000D000002010B5044696
:1027B000A1B24FF0804000F03FFC10BD10B50446C0
:1027C000A1B24FF0804000F039FC10BD29B1064A9B
:1027D000D2690243044BDA6104E0034AD2698243BE
:1027E000014BDA61704700000010024029B1064A2F
:1027F00092690243044B9A6104E0034A926982435E
:10280000014B9A61704700000010024030B5002172
:102810000022002400232D4D6D6805F00C0121B12C
:10282000042905D0082923D105E0294D056022E0BF
:10283000274D05601FE0254D6D6805F47012234D8E
:102840006D6805F48034022505EB92421CB9214DD8
:10285000554305600BE01D4D6D6805F400351DB155
:102860001C4D5543056002E0194D5543056002E0DB
:10287000174D056000BF00BF144D6D6805F0F001F5
:102880000909154D6B5C0568DD4045600F4D6D68AD
:1028900005F4E061090A104D6B5C4568DD40856018
:1028A0000A4D6D6805F46051C90A0B4D6B5C4568B3
:1028B000DD40C560054D6D6805F44041890B074D4D
:1028C0006B5CC568B5FBF3F5056130BD00100240D7
:1028D00000127A0000093D001400002024000020AE
:1028E0000148007870470000540000200548007837
:1028F000012804D1002003490870012070470020FE
:10290000FCE700005500002000B587B001218803D6
:10291000FFF76CFF01210820FFF768FF012108463F
:10292000FFF764FF01210420FFF74CF918208DF810
:102930001B004020ADF8180003208DF81A0006A9EE
:102940002048FFF7B3F848208DF81B008020ADF831
:10295000180003208DF81A0006A91A48FFF7A6F8F8
:102960004FF4165002900020ADF814000C20ADF882
:1029700012000020ADF81000ADF80E00ADF80C000C
:1029800002A9114800F0C8FC012240F225510E486E
:1029900000F09CFC4FF4A060FFF704FD25208DF8AB
:1029A000040001208DF807008DF805008DF8060061
:1029B00001A8FFF7BFFC0121034800F044FC07B069
:1029C00000BD0000000C01400038014010B5044675
:1029D0002146054800F011FD00BF8021024800F0AB
:1029E0003EFC0028F9D010BD0038014010B500F0C1
:1029F00001F810BD0CB5002001900090334800682C
:102A000040F480303149086000BF3048006800F46D
:102A1000003000900198401C0190009818B901986E
:102A2000B0F5A06FF1D12948006800F4003010B172
:102A30000120009001E0002000900098012843D17F
:102A40002348006840F010002149086008460068EB
:102A500020F0030008600846006840F002000860AB
:102A60001A48406819494860084640684860084666
:102A7000406840F4806048600846406820F47C105C
:102A800048600846406840F4E8104860084600681E
:102A900040F08070086000BF0C48006800F00070D3
:102AA0000028F9D00948406820F003000749486031
:102AB0000846406840F00200486000BF0348406894
:102AC00000F00C000828F9D10CBD000000100240F5
:102AD00000200240042808D14FF0E021096941F0AC
:102AE00004014FF0E022116107E04FF0E021096995
:102AF00021F004014FF0E0221161704710B505F09C
:102B000021FE012801D005F0A3FA10BD10B513482D
:102B1000006840F00100114908600846406810490B
:102B200008400E494860084600680E4908400B49B5
:102B300008600846006820F4802008600846406865
:102B400020F4FE0048604FF41F008860FFF74EFF3E
:102B50004FF000600449086010BD00000010024002
:102B60000000FFF8FFFFF6FE08ED00E0F0B50C46B0
:102B7000154600220021068C4FF6FE773E40068463
:102B8000028B018C4FF60C7632407E1C06EA03164F
:102B90002E433243104EB0420ED0104EB0420BD0F6
:102BA000B0F1804F08D00E4EB04205D00D4EB0426D
:102BB00002D00D4EB04206D14FF6FD76314044F0C2
:102BC0000106314305E04FF6F576314044F0010649
:102BD000314302830184F0BD002C014000340140E8
:102BE0000004004000080040000C0040F0B50C4616
:102BF0001546002200210026078C4FF6EF7C07EADD
:102C00000C070784028B018C4FF6FF7707EA041646
:102C100040F6FF473A404FF6FF7707EA03373A435B
:102C20004FF6FF7707EA05273A43114FB8420ED017
:102C3000104FB8420BD0B0F1804F08D00E4FB842C1
:102C400005D00E4FB84202D00D4FB84206D14FF614
:102C5000DF77394046F01007394305E04FF65F77DC
:102C6000394044F01007394302830184F0BD00006D
:102C7000002C0140003401400004004000080040E6
:102C8000000C0040F0B50C4615460022002100263D
:102C9000078C4FF6FF6C07EA0C070784828B018CC8
:102CA0004FF6FF7707EA04264FF60C773A404FF6C7
:102CB000FF7707EA03172F433A43114FB8420ED06C
:102CC000104FB8420BD0B0F1804F08D00E4FB84231
:102CD00005D00E4FB84202D00D4FB84206D14FF684
:102CE000FF57394046F48077394305E04FF2FF57EC
:102CF000394044F48077394382830184F0BD000079
:102D0000002C014000340140000400400008004055
:102D1000000C0040F0B50C461546002200210026AC
:102D2000078C4EF6FF7C07EA0C070784828B018C28
:102D30004FF6FF7707EA043640F6FF473A404FF672
:102D4000FF7707EA05273A434FF6FF7707EA03378D
:102D50003A43114FB8420ED0104FB8420BD0B0F1E9
:102D6000804F08D00E4FB84205D00E4FB84202D067
:102D70000D4FB84206D14DF6FF77394046F48057E3
:102D8000394305E047F6FF57394044F4805739434B
:102D900082830184F0BD0000002C0140003401401A
:102DA0000004004000080040000C004021B10288EF
:102DB00042F00102028004E002884FF6FE731A40DE
:102DC00002807047F0B50C4615461E4600210022D1
:102DD00000230189028B038C4FF6F8773940214399
:102DE0004FF6FC473A4040F201173A434FF6DD7781
:102DF0003B404FF6FF7707EA06172F433B4301811D
:102E000002830384F0BD0146888C704770B5054687
:102E10000C46244885420ED0234885420BD0B5F19C
:102E2000804F08D02148854205D02148854202D0F4
:102E30002048854200D100E000BF208850B9238996
:102E4000A28861882846FFF791FEE188284600F0B5
:102E5000F9F825E0208804280AD12389A28861880E
:102E60002846FFF7C3FEE188284600F0F4F817E093
:102E7000208808280AD12389A28861882846FFF77C
:102E800001FFE188284600F0F3F809E02389A288D1
:102E900061882846FFF73EFFE188284600F0F1F8F8
:102EA00070BD0000002C01400034014000040040CF
:102EB00000080040000C00400021018041800121F9
:102EC00081800021C180018170471AB183890B4341
:102ED000838102E083898B438381704701894FF6A8
:102EE000F87211400181704770B500240022002360
:102EF000058C4FF6FE7635400584028C8388048B62
:102F00004FF68F752C40B51E2C400D882C43751E36
:102F10002A400D892A434D882A43144DA8420BD0DC
:102F2000134DA84208D0134DA84205D0124DA84217
:102F300002D0124DA84213D14FF6F7752A404D89A1
:102F40002A434FF6FB752A408D882A434FF6FF65CA
:102F50002B404FF6FF552B408D892B43CD892B43BA
:102F600083800483CD888586028470BD002C014057
:102F7000003401400040014000440140004801404D
:102F800070B5002400220023058C4FF6EF76354003
:102F90000584028C8388048B48F6FF752C404FF61D
:102FA000FF452C400D884FF6FF7606EA05252C4399
:102FB0004FF6DF752A400D8906EA05152A434D882C
:102FC00006EA05152A43154DA84202D0144DA84221
:102FD0001DD14FF67F752A404D894FF6FF7606EAE0
:102FE00005152A434FF6BF752A408D8806EA051558
:102FF0002A434FF6FF352B404FF2FF752B408D894A
:1030000006EA85052B43CD8906EA85052B43838097
:103010000483CD880587028470BD0000002C014028
:10302000003401400021018041808180C180018104
:1030300041818181C18170478186704701877047D6
:1030400081847047028B4FF6F3731A400283028B20
:103050000A4302837047028B4FF2FF331A40028308
:10306000028B4FF6FF7303EA01231A430283704772
:10307000828B4FF6F3731A408283828B0A438283DA
:103080007047828B4FF2FF331A408283828B4FF658
:10309000FF7303EA01231A438283704700220288E8
:1030A0001D4B98420ED01D4B98420BD0B0F1804F73
:1030B00008D01B4B984205D01A4B984202D01A4BAD
:1030C000984204D14FF68F731A404B881A43174B1E
:1030D000984207D0164B984204D04FF6FF431A404F
:1030E000CB881A4302808B8883850B8803850A4B23
:1030F00098420BD0094B984208D00E4B984205D00D
:103100000D4B984202D00D4B984201D10B7A0386A9
:103110000123838270470000002C014000340140ED
:103120000004004000080040000C00400010004077
:1031300000140040004001400044014000480140AC
:103140002DE9F047054621480668214800784328C4
:1031500006D12048006880F000401F4908600BE05D
:103160001B480078472804D11A4800681A490860AB
:1031700002E000201849086015480078412803D073
:1031800013480078452802D11448046800E0002460
:103190002146284606F048FD8146114906F0B2FB5B
:1031A000074631460C48006806F03EFD81460C4952
:1031B00006F0A8FB8046394606F036FB0949086050
:1031C0000846006806F094FCBDE8F087F400002093
:1031D000E20000204C00002044000020F800002005
:1031E0000000C8424800002010B540F225510B48AD
:1031F00000F042F8012810D1084800F0F9F8084919
:10320000087008460078FFF7E1FB012005490870C7
:1032100040F22551014800F007F810BD0038014088
:10322000540000205500002010B50022002340F675
:103230006A14A14200D100BF0A1201249440A3B233
:10324000DC43048010BD21B1828942F400528281A6
:1032500004E082894DF6FF731A408281704702466E
:103260000020B1F5007F00D100BF13880B400BB1E7
:10327000012000E00020704770B5024600240023C2
:103280000025002040F66A16B14200D100BFC1F30C
:10329000421501F01F03012606FA03F3012D02D1A6
:1032A0009689334006E0022D02D1168A334001E0B0
:1032B000968A33400C12012606FA04F4168834402C
:1032C00013B10CB1012000E0002070BDF0B5034641
:1032D000002400260025002040F66A17B94200D1DC
:1032E00000BF1846C1F3421401F01F06012707FA78
:1032F00006F5012C01D10C3004E0022C01D1103074
:1033000000E014301AB107682F43076002E0076835
:10331000AF430760F0BD00002DE9F04786B00546D9
:103320000E460024A24600BFA1460027B08900B186
:1033300000BF2F462C8A4CF6FF700440F0880443EF
:103340002C82AC894EF6F3100440B08831890843D2
:10335000718908430443AC81AC8A4FF6FF400440B6
:10336000B0890443AC8201A8FFF750FA1F48874296
:1033700002D1DDF810A001E0DDF80CA0A88900F46E
:10338000004040B10AEBCA0000EB0A103168490066
:10339000B0FBF1F807E00AEBCA0000EB0A10316855
:1033A0008900B0FBF1F86420B8FBF0F004012009BB
:1033B000642101FB1089A88900F4004040B132204B
:1033C00000EBC900B0FBF1F000F00700044308E097
:1033D000322000EB09106421B0FBF1F000F00F0087
:1033E00004432C8106B0BDE8F0870000003801409E
:1033F00001468888C0F308007047C1F30802828044
:10340000704700BFFEE700002DE9FC5F04468946D7
:1034100048484949086049480078412804D108468D
:103420000068474908600DE044480078452806D107
:103430004148006880F000404149086002E00020F7
:103440003F49086004EB0901084606F08DFB3D4941
:1034500008603D48006806F0BBF907464FF0663249
:103460003A4B05F0DBFE054605F09EFC3649086048
:103470003448006806F0ACF905464FF03332344B5F
:1034800005F0CCFE074688462F48006806F0A0F9F4
:1034900082463A46434605F0B9FCCDE9000105F005
:1034A00083FC29490860084601682A48006806F03C
:1034B000BBF928490860224801682648006806F0E0
:1034C000B3F92449086024492248006806F078FCD2
:1034D00002D221481F49086020491E48006806F0B2
:1034E0006FFB02D21D481B4908601D48016819483E
:1034F000006806F099FB07461A4906F003FA0546EC
:103500001148006880F0004817480168404606F0FE
:103510008BFB0746134906F0F5F90646294606F0E7
:103520008BFC124908600846006806F0E1FABDE825
:10353000FC9F00000000FA4340000020E200002051
:103540003800002030000020340000206666E63F8E
:103550003333D33F3C00002000401C4600401CC6D3
:10356000F00000200000C842EC0000202C000020E9
:10357000490050EAC12018BF04204A0D18BF40F08E
:10358000010040F2FF72B2EB515F08BF40F0020051
:10359000012808BF052070472DE9F0414F1E00EBC0
:1035A000C7010446D1E9000115461E4637F0060260
:1035B0000DD02A46334605F031FE7F1E04EBC703CB
:1035C000D3E9002305F022FC37F00602F1D1022FE7
:1035D00025D0042F13D0062F18BFBDE8F0812A464E
:1035E000334605F01BFED4E90A2305F00FFC2A46FA
:1035F000334605F013FED4E9082305F007FC2A46FC
:10360000334605F00BFED4E9062305F0FFFB2A46FE
:10361000334605F003FED4E9042305F0F7FB2A4600
:10362000334605F0FBFDD4E9022305F0EFFB2A4603
:10363000334605F0F3FDD4E90023BDE8F04105F081
:10364000E5BB012206F0A1BC05F0E0BB0022134659
:103650001046114605F08ABC024A0020110706F008
:1036600094BC000001FDFFFF30380A2801D2012080
:1036700070470020704700BF704700002DE9FE4FE3
:1036800006460F460025684601F0F8F9002442E09E
:1036900056F8240057F82410A0EB010ABAF1000FE5
:1036A00001DB514601E0CAF10001084606F05CFA70
:1036B00083464FF08F4106F025F980465DF82400DF
:1036C000002106F0E1F916D05DF82410404606F01E
:1036D00019F982464FF07E5106F0AEFB814629F083
:1036E000004A0F48416A504606F06AFB12D2012098
:1036F000A04005430EE00A48C169404606F060FA62
:1037000005D30748016A404606F05AFB02D2012061
:10371000A0400543641C032CBADB2846BDE8FE8F9D
:1037200040A000082DE9F04D8D4F21F0004A86B0F1
:1037300005460C46BA452ADBAAEB070028430AD007
:103740008848824501DC1AD1CDB106B02846BDE8D3
:10375000F04DFFF776BF844A844B284605F05EFDA6
:1037600007460E46824A834B2846214605F056FD01
:1037700006B03A463346BDE8F04D05F047BB0120A0
:10378000FDF72AF806B0BDE8F04DFFF75FBF7A48B5
:10379000824542DABAF1795F0BDA2846FFF7E8FE94
:1037A000042808BFFFF758FF284606B02146BDE8A9
:1037B000F08D2A460B46104605F030FD8346024642
:1037C0006E480E460B4606217844FFF7E5FE5A4642
:1037D000334605F023FD804669488A465A463346FB
:1037E00004217844FFF7D8FE5A46334605F016FD0B
:1037F00000223B4605F00AFB02460B464046514676
:1038000005F0B4FB2A46234605F008FD06B02A461B
:103810002346BDE8F04D05F0F9BA284624F00041F2
:1038200000223D463B4605F0F7FD4FF0FF3206F023
:10383000ACFB0646024653480F460B460621784429
:10384000FFF7AAFE32463B4605F0E8FCCDE9000151
:103850004D4832463B4604217844FFF79DFE3246F0
:103860003B4605F0DBFC00222B4605F0CFFA8346F1
:1038700002913046394603F0E1FC804643480D464C
:10388000504517DCDDE900015A46029B05F06EFB4E
:1038900042462B4605F0C2FC42462B4605F0B6FADE
:1038A000012206F072FB304A304B05F0A7FE304A89
:1038B000304B4CE04FF0000A52460B46404605F0B4
:1038C000A5FACDE9031052462B461046194605F0DD
:1038D000A5FC32463B4605F09FFDDDE9033205F0CD
:1038E00045FB06460F46DDE900015A46029B05F0FE
:1038F0003DFB8346009101223046394606F045FBE8
:10390000194A1A4B05F088FD06460F46012240462B
:10391000294606F03AFB5A46009B05F07FFC3246EA
:103920003B4605F06BFE06460F46012250462946EF
:1039300006F02BFB0E4DDFF858802A46434605F073
:103940006BFD32463B4605F067FD2A46434605F0CF
:1039500063FD002CD8BF81F0004106B0BDE8F08DBA
:103960000000F03F0000F07F075C143326A6913C76
:10397000182D4454FB21F93F0000E03F947A0000E9
:10398000AA7A00001E7A0000347A00003333EF3F39
:10399000FB21E93F2DE9F84F04460D4621F0004098
:1039A00000917349814211DC7249884201DC06D1E1
:1039B0002CB120462946BDE8F84FFFF742BE6E48BD
:1039C000002DCCBF6D496E49BDE8F88F6D4981422D
:1039D00011DD6D498142D8BF4FF0FF366DDD2046C5
:1039E0002946FFF7C5FD042808BFFFF735FE20462E
:1039F0002946BDE8F88F6549654F25F000458142AD
:103A000033DD6449814219DD002632464FF08043A0
:103A10002046294605F0FAF980468A4601222046CA
:103A2000294606F0B2FA00223B4605F0E7FD424681
:103A3000534605F09BFA04460D463EE0012600225F
:103A4000BA463B462046294605F0E0F980460F4637
:103A5000002253462046294605F0D0FD42463B460B
:103A600005F084FA04460D4627E04B4981421BDDF0
:103A7000DFF828A10226002253462046294605F0F9
:103A8000CDFB00223B4605F0C1F980460F460022DF
:103A900053462046294605F0B1FD42463B4605F017
:103AA00065FA04460D4608E0032622462B46002010
:103AB0003B4905F05BFA04460D4622462B4610466C
:103AC000194605F0ABFB8B46824602460B4605F0D5
:103AD000A5FB07460246334888460B460621784434
:103AE000FFF75AFD52465B4605F098FB82462E488A
:103AF0008B463A46434605217844FFF74DFD3A464A
:103B0000434605F08BFB02460B46002E50465946B5
:103B10000CDA05F07BF922462B4605F07FFB01B05D
:103B200022462B46BDE8F04F05F076BC05F06EF955
:103B300022462B4605F072FB1C4A7A4402EBC60370
:103B4000D3E9002305F05AFD22462B4605F056FD29
:103B5000174A7A4402EBC603D3E9002305F05CFC64
:103B6000009A002AB8BF81F00041BDE8F88F00003C
:103B7000000010440000F07F182D4454FB21F93F51
:103B8000FB21F9BF0000DC3F0000203E0000F33FB6
:103B90000000F03F0000E63F008003400000F83FD7
:103BA0000000F0BF36780000F47700009277000044
:103BB0005A7700002DE9F04D9446CCF1000423F033
:103BC00000464CEA0404524F46EAD4749A468846AA
:103BD00021F00042BC4206D8454240EA050442EAD0
:103BE000D474BC4204D9BDE8F04D6246FFF72CBD49
:103BF000AAF14055A5F17F6555EA0C040BD00224CB
:103C000004EAAA74434DDFF810E144EAD87452EA9A
:103C1000000B04D00CE0BDE8F04DFFF7BBBE002C5C
:103C200014BF012CBDE8F08D022C30D0032C32D013
:103C300056EA0C0B0AD0BE4220D1BA4209D126F076
:103C4000804622F080423346114617E000291ADBF5
:103C500025E0DFF8C8B0FB44002C04BFDBE900011D
:103C6000BDE8F08D012C02BFDBE9000181F00041CD
:103C7000BDE8F08D022C0AD0032C0CD0BA4212D130
:103C8000B8F1000F0BDA23482549BDE8F08D28462E
:103C90002449BDE8F08D28467146BDE8F08D1D48E9
:103CA0002149BDE8F08D921B12153C2AC4BF19486A
:103CB0001D490EDCBAF1000FBEBF12F13C0F00200F
:103CC000014606DB624605F051F921F00041FFF79D
:103CD00061FE002C08BFBDE8F08D012C04BF81F00F
:103CE0000041BDE8F08D114A114B022C07D005F0C0
:103CF00085FC2A46BDE8F04D0A4B05F07FBC05F077
:103D00007DFC2A46BDE8F04D064B05F085BB000062
:103D10000000F07F182D4454FB2109C0EE7600000E
:103D2000FB21F9BFFB210940FB21F93F075C14335C
:103D300026A6A13C2DE9F0410446E07800F0C0063B
:103D4000E07800F03F05607800F0010098B1EF10D6
:103D50002846E91705EB5171C910A5EBC101491CB3
:103D600001F0FF080B48006820B10A48414602688C
:103D70003846904700BF607800F0080030B1054831
:103D8000406818B1B011034A516888470020BDE867
:103D9000F08100008001002010B50420FEF79AFE9B
:103DA000104800681049B0FBF1F0104908700D4848
:103DB00000680D49B0FBF1F44FF47A7044430120E0
:103DC0000B4908804FF0E020006940F002004FF0FE
:103DD000E021086108464461006940F00100086183
:103DE00010BD00000000002040420F00280000200D
:103DF0002A00002070B5044604F0A4FC012810D06D
:103E00000B480088844206D309480088B4FBF0F5CB
:103E1000284603F017FD06480088B4FBF0F100FBCC
:103E200011444FF47A7104FB01F000F003F870BD07
:103E30002A00002070B5034600224FF0E026756985
:103E40000D4E367803FB06F44FF0E026B16910E022
:103E50004FF0E026B06988420BD0884202D20E1A99
:103E6000324402E02E1A0E4432440146A24200D3EC
:103E700000E0EDE700BF70BD2800002038B5044623
:103E800064B120208DF8000028208DF8010030203A
:103E90008DF8020038208DF8030004E0A3220421ED
:103EA0006846FCF711FC6A46042140F69E2002F0A9
:103EB00015FA01F0FFFD38BD3EB5044602208DF82D
:103EC0000000CA208DF80100E3208DF802000920CF
:103ED0008DF803006A460421682002F0FFF9A32050
:103EE0008DF8000004F0400048B1C0208DF80100BA
:103EF000C8208DF80200C2208DF8030006E0A32040
:103F00008DF801008DF802008DF8030004F4C070F4
:103F100048B1C4208DF80400CC208DF80500C620DF
:103F20008DF8060006E0A3208DF804008DF805004A
:103F30008DF80600A3208DF807008DF808008DF895
:103F400009006A460A2140F6A72002F0C7F904F0EA
:103F5000030018B120208DF8000002E0D8208DF871
:103F600000006A46012140F6B62002F0B7F904F0DD
:103F7000200018B1012000F0ADF802E0002000F0B0
:103F8000A9F804F4C07008B304F4807060B1B220E2
:103F90008DF800008B208DF80100B6208DF802000E
:103FA0009B208DF803000BE0B0208DF800008020EE
:103FB0008DF80100B4208DF8020090208DF80300E8
:103FC0006A46042140F6A22002F088F904F00100BC
:103FD00020B3F8208DF800006A4601214FF40B60F1
:103FE00002F07CF9FA21072000F02CFC072000F0F9
:103FF000F3FB012000F013FC642000F0F3FC4FF40D
:10400000FA7000F002FDC821304800F0A3FB282020
:1040100000F0BCFB0A2000F0CCFB08E0D8208DF8B3
:1040200000006A4601214FF40B6002F057F904F0DA
:10403000020018B1D9208DF8000002E0D8208DF8D8
:1040400000006A46012140F23D7002F047F904F099
:10405000040018B1012000F069F802E0002000F02F
:1040600065F804F0100018B10120FFF707FF02E027
:104070000020FFF703FF44F008001549488101F0D4
:1040800019FD00201249887304F0400018B1084659
:10409000807B801D887304F4C07020B10C48807B45
:1040A000801D0B49887304F0140020B10848807B00
:1040B00010300749887304F0030020B10448807B66
:1040C000001D0349887300203EBD000009E3CA02B9
:1040D000800100203EB504466CB10EA1D1E900205C
:1040E0008968CDE9002002916A4609214FF4976062
:1040F00002F0F4F83EBD0AA2D2E900109268CDE9C0
:10410000010200916A4609214FF4976002F0E6F837
:10411000F0E70000B8AAB38DB4980D355D0000003B
:10412000B8AAAAAAB088C3C5C700000038B504461B
:1041300064B1C0208DF80000C2208DF80100C420B9
:104140008DF80200C6208DF8030004E08B220421C4
:104150006846FCF7B9FA6A46042140F6982002F056
:10416000BDF801F0A7FC38BD10B5C8234FF480623C
:10417000024940F6F63001F031FB10BD68A000089E
:104180002DE9F04F8DB00746884615469946DDE982
:10419000166B0024002030806B49887B5A4605A9A5
:1041A00001F0E8FB18B1601E0DB0BDE8F08F664865
:1041B000807A00F01400002867D09DF814000006F3
:1041C0009DF8151040EA01409DF8161040EA0120C4
:1041D0009DF81710084328609DF8180000069DF808
:1041E000191040EA01409DF81A1040EA01209DF89C
:1041F0001B10084368609DF81C0000069DF81D1008
:1042000040EA01409DF81E1040EA01209DF81F1071
:104210000843A8609DF8200000069DF8211040EAA0
:1042200001409DF8221040EA01209DF82310084328
:10423000E86004F11000C4B22868001401906868B6
:1042400000140290A86800140390E8680014049019
:1042500001984043029901FB0100039901FB010011
:10426000049901FB010ABAF1706F02DBBAF1885FB1
:1042700005DD01F01FFC00203080401E94E7B6F9F8
:10428000000040F48070308000BF2F48807A00F03A
:10429000400020B305A9601C085C095D40EA0120CC
:1042A00000B2A8F8000005A9E01C095C05AAA01C42
:1042B000105C41EA002000B2A8F8020005A9601DC8
:1042C000095C201D105C41EA002000B2A8F804003F
:1042D000A01DC4B2B6F9000040F0080030801A48B2
:1042E000408900F4C07008B305A9601C085C095D32
:1042F00040EA012000B2388005A9E01C095C05AA4B
:10430000A01C105C41EA002000B2788005A9601D65
:10431000095C201D105C41EA002000B2B880A01D9D
:10432000C4B2B6F9000040F0700030800648807AD0
:1043300000F0030018B105A90819FFF7FBFC484677
:1043400000F00FFF00202FE78001002070B588B03B
:10435000064601A801F0C6F8BDF804000021C90313
:1043600041EA5045C4034448007A00F0030056F87F
:10437000200005904048007A00F0040010B1059834
:10438000404205903C48007AC0F3C10056F8200036
:1043900006903948007A00F0200010B1069840429B
:1043A00006903548007AC0F3811056F82000079037
:1043B0003148008900F4807010B10798404207909E
:1043C0000598C117A0FB042301FB043100FB051075
:1043D000810041EA927005900698C117A0FB042362
:1043E00001FB043100FB0510810041EA9270069048
:1043F0000798C117A0FB042301FB043100FB051043
:10440000810041EA927007900598000E8DF808002F
:104410000598000C8DF809000598000A8DF80A002F
:104420000598C0B28DF80B000698000E8DF80C00B0
:104430000698000C8DF80D000698000A8DF80E0005
:104440000698C0B28DF80F000798000E8DF8100086
:104450000798000C8DF811000798000A8DF81200DB
:104460000798C0B28DF8130002AA0C214FF42570F2
:1044700001F034FF08B070BD8001002030B585B078
:10448000044616A207CA02AB07C3C82C03DD4FF0CF
:10449000FF3005B030BDC82090FBF4F0401E85B25F
:1044A000280A8DF80000E8B28DF801006A46022162
:1044B00040F2162001F012FF10B14FF0FF30E8E794
:1044C00002AA0C2140F6C12001F008FF10B14FF004
:1044D000FF30DEE7044884810020DAE7FEF2ABC457
:1044E000AAF1DFDFBBAFDFDF800100201FB504468C
:1044F0004848007A00F0030054F820000190454835
:10450000007A00F0040010B1019840420190414847
:10451000007AC0F3C10054F8200002903D48007AB0
:1045200000F0200010B10298404202903948007A11
:10453000C0F3811054F8200003903648008900F43D
:10454000807010B10398404203903349019880FB7A
:104550000101800F40EA810001902F49029880FB01
:104560000110820042EA917002902B49039880FB6F
:104570000110820042EA917003900198000E8DF8BC
:1045800000000198000C8DF801000198000A8DF8D8
:1045900002000198C0B28DF803006A4604214FF46E
:1045A000747001F09BFE18B14FF0FF3004B010BDE5
:1045B0000298000E8DF800000298000C8DF80100A2
:1045C0000298000A8DF802000298C0B28DF803002C
:1045D0006A4604214FF4757001F080FE10B14FF06F
:1045E000FF30E3E70398000E8DF800000398000CFD
:1045F0008DF801000398000A8DF802000398C0B2FC
:104600008DF803006A4604214FF4767001F066FECF
:10461000CCE700008001002009E3CA0210B586B093
:10462000044647A00068039046A00068029046A098
:104630000068019045A00068009004F0030003A901
:10464000085C8DF8140003A8C4F3C101405C8DF828
:10465000150003A8C4F38111405C8DF8160004F026
:10466000030002A9085C8DF8100002A8C4F3C10180
:10467000405C8DF8110002A8C4F38111405C8DF8F4
:10468000120005AA032140F2264001F027FE18B1CE
:104690004FF0FF3006B010BD04AA032140F22A40BB
:1046A00001F01CFE10B14FF0FF30F3E701980590C8
:1046B0000098049004F0040058B19DF8140040F0F4
:1046C00001008DF814009DF8100040F001008DF8F5
:1046D000100004F0200058B19DF8150040F00100D2
:1046E0008DF815009DF8110040F001008DF81100C3
:1046F00004F4807058B19DF8160040F001008DF868
:1047000016009DF8120040F001008DF8120005AA75
:1047100003214FF4886001F0E1FD10B14FF0FF304C
:10472000B8E704AA032140F2314001F0D7FD10B1EF
:104730004FF0FF30AEE7064804810020AAE70000F2
:104740004CCD6C000CC92C0036567600264666000F
:1047500080010020F8B505460E464FF47A7095FBAF
:10476000F0F000FB06F4200E8DF80000200C8DF810
:104770000100200A8DF80200E0B28DF803006A46BD
:1047800004214FF4AE7001F0A9FDF8BD38B5044620
:10479000052094FBF0F084B220128DF80000E0B206
:1047A0008DF801006A4602214FF4AD7001F096FDCC
:1047B00038BD38B50446052094FBF0F084B22012D1
:1047C0008DF80000E0B28DF801006A4602214FF436
:1047D000AC7001F083FD38BD38B504460020009070
:1047E00004F0010020B19DF8000040F0300000907E
:1047F00004F0020020B19DF8000040F00C00009091
:1048000004F0040020B19DF8000040F00300009087
:104810006A4601214FF4A47001F060FD38BD38B53F
:104820000446012C01DA012402E0042C00DD0424FA
:10483000601EC0B200906A46012140F24F1001F0A4
:104840004DFD38BD2DE9FC4706460F4606F0070032
:1048500010B1B7F5C86F03DD4FF0FF30BDE8FC873E
:10486000384605F099F98146594905F04BF88046DC
:10487000684600F011FE9DF80000022806D00428CA
:1048800016D0082826D0102848D135E04FF08D41A9
:10489000404605F0C9F9814605F046F984B24D4914
:1048A000404605F0C1F9814605F03EF985B238E091
:1048B0004FF08C41404605F0B7F9814605F034F9D8
:1048C00084B24549404605F0AFF9814605F02CF920
:1048D00085B226E04FF08B41404605F0A5F98146B0
:1048E00005F022F984B23D49404605F09DF9814624
:1048F00005F01AF985B214E04FF08A41404605F000
:1049000093F9814605F010F984B23549404605F027
:104910008BF9814605F008F985B202E04FF0FF30CF
:104920009CE700BF20128DF80400E0B28DF805006E
:1049300028128DF80600E8B28DF8070006F0010095
:10494000A0B101AA02214FF4EA7001F0C7FC10B136
:104950004FF0FF3082E70DF1060202214FF4927012
:1049600001F0BCFC10B14FF0FF3077E706F0020019
:10497000A0B101AA02214FF4EC7001F0AFFC10B11C
:104980004FF0FF306AE70DF1060202214FF49470F8
:1049900001F0A4FC10B14FF0FF305FE706F0040017
:1049A000A0B101AA02214FF4EE7001F097FC10B102
:1049B0004FF0FF3052E70DF1060202214FF49670DE
:1049C00001F08CFC10B14FF0FF3047E7002045E7C5
:1049D00000004843000040460000C045000040453C
:1049E0000000C04438B50446052094FBF0F085B2C1
:1049F00028128DF80000E8B28DF801006A46022105
:104A00004FF4EF7001F06AFC38BD38B5044605205C
:104A100094FBF0F085B228128DF80000E8B28DF812
:104A200001006A4602214FF4ED7001F057FC38BDD9
:104A300000BF054A128802F04002002AF9D0C2B233
:104A4000014B1B1D1A807047004800401CB50648EA
:104A5000012100238022CDE9001004A1064803F0C3
:104A600041FE03F0C9F81CBD980000207374617208
:104A7000745F7461736B0000897200087CB5054631
:104A800028494968087801AB04220D21FDF70CFB89
:104A900008B107207CBD9DF80700C0F301109DF808
:104AA000041001F0E00140EAE1008DF800009DF8FB
:104AB0000700C0F381009DF8051001F0E00140EA15
:104AC000E1008DF801009DF8070000F003009DF85B
:104AD000061001F0E00140EAE1008DF80200002438
:104AE0001CE01DF8040018B9002045F8240013E06C
:104AF0000D4845F8240006E055F824000B4905F060
:104B000093F845F824001DF80400401EC0B20DF8CB
:104B100004000028F0D100BF601CC4B2032CE0DB0D
:104B20000020B7E7600000207B14AE3E1D5A843F92
:104B30002DE9F04F87B005460C46914601208DF8CF
:104B4000100000208DF81100FE4A1268917CFD4A89
:104B50005268107804AB0222FDF74CFB20B14FF0F5
:104B6000FF3007B0BDE8F08FC820FFF743F9002001
:104B70008DF81000F34A1268D17BF24A526810781F
:104B800004AB0122FDF736FB10B14FF0FF30E8E730
:104B9000EC4A12685179EB4A5268107804AB012252
:104BA000FDF728FB10B14FF0FF30DAE7E54A126855
:104BB000917CE44A5268107804AB0122FDF71AFB9D
:104BC00010B14FF0FF30CCE7DE4A1268D17DDD4AEC
:104BD0005268107804AB0122FDF70CFB10B14FF0C6
:104BE000FF30BEE7D74A12681179D64A526810786A
:104BF00004AB0122FDF7FEFA10B14FF0FF30B0E731
:104C00000C208DF81000CF4A12681179CD4A5268F5
:104C1000107804AB0122FDF7EDFA10B14FF0FF3030
:104C20009FE70F20FFF7E6F8C648806A407A8DF8C4
:104C30001000C44A12689178C24A5268107804ABD6
:104C40000122FDF7D7FA10B14FF0FF3089E7BD48D8
:104C5000806A007A8DF81000BA4A12685178B94A11
:104C60005268107804AB0122FDF7C4FA10B14FF07E
:104C7000FF3076E7B9F1000F07D0B248806A807A3A
:104C800040F0E0008DF8100004E0AE48806A807AC1
:104C90008DF81000AB4A12689179AA4A52681078D0
:104CA00004AB0122FDF7A6FA10B14FF0FF3058E730
:104CB000B9F1000F07D0A348806AC07A40F0E00045
:104CC0008DF8100003E0A048C07A8DF810009D4ACE
:104CD0001268D1799B4A5268107804AB0122FDF723
:104CE00089FA10B14FF0FF303BE7B9F1000F02D065
:104CF000C820FFF77FF840208DF81000914A126815
:104D00001179904A5268107804AB0122FDF772FACB
:104D100010B14FF0FF3024E778208DF81000894A59
:104D200012685179874A5268107804AB0122FDF766
:104D300061FA10B14FF0FF3013E783498889FFF71C
:104D400059F800208DF810007E4A126851797D4A8A
:104D50005268107804AB0122FDF74CFA10B14FF005
:104D6000FF30FEE6774A1268917A764A52681078E8
:104D700004AB0222FDF798F910B14FF0FF30F0E6D6
:104D80009DF811009DF8101040EA012B0C209BFBB0
:104D9000F0F0C6B20020A86068602860A060606083
:104DA0002060824665E0674A1268D17A654A526897
:104DB000107804AB0C22FDF777F910B14FF0FF30FB
:104DC000CFE69DF811009DF8101040EA012000B2D6
:104DD000ADF808009DF813009DF8121040EA01207C
:104DE00000B2ADF80A009DF815009DF8141040EAD5
:104DF000012000B2ADF80C00BDF90810206808448D
:104E00002060BDF90A10606808446060BDF90C10AC
:104E1000A0680844A0609DF817009DF8161040EAAD
:104E2000012000B2ADF800009DF819009DF818109F
:104E300040EA012000B2ADF802009DF81B009DF889
:104E40001A1040EA012000B2ADF80400BDF90010CC
:104E5000286808442860BDF9021068680844686042
:104E6000BDF90410A8680844A8600AF1010000F028
:104E7000FF0AB24597DB3448D0F800C02868C11754
:104E8000090441EA10410704624600233846FBF753
:104E90001AFA32460023CDE90201FBF714FA286022
:104EA0002948D0F800C06868C117090441EA1041D8
:104EB0000704624600233846FBF705FA3246002312
:104EC000CDE90201FBF7FFF968601F48D0F800C088
:104ED000A868C117090441EA10410704624600238B
:104EE0003846FBF7F0F932460023CDE90201FBF723
:104EF000EAF9A8601448D0F804C02168C817000473
:104F000040EA11480F046246002338464146FBF749
:104F1000DAF932460023CDE90201FBF7D4F920602B
:104F20000948D0F804C06068C117090441EA10417B
:104F30000704624600233846FBF7C5F932460023D2
:104F400004E000006000002040A00008CDE902015C
:104F5000FBF7B9F960601148D0F804C0A068C11728
:104F6000090441EA10410704624600233846FBF772
:104F7000AAF932460023CDE90201FBF7A4F9A060AB
:104F8000A068002804DDA068A0F58030A06003E0E0
:104F9000A06800F58030A0600020E2E540A0000895
:104FA0002DE9FC5F06460F4600253D494968087813
:104FB00001AB03220D21FDF777F810B10720BDE802
:104FC000FC9F9DF8040000F01F008DF804009DF880
:104FD000050000F01F008DF805009DF8060000F0A8
:104FE0001F008DF80600002456E056F8240057F8FC
:104FF0002410A0EB010BBBF1000F01DB594601E0CF
:10500000CBF10001084604F0AFFD4FF08F41009056
:1050100004F078FC814601A8005D68B32149086866
:1050200004F0BAFD834659461F4804F06BFC8046E5
:1050300004E01E49404604F0F7FD804601A8005DEB
:10504000401EC0B201A908550028F2D14146484689
:1050500004F058FC83464FF07E5104F0EDFE82468A
:105060002AF0004B0F488169584604F0A9FE12D27D
:105070000120A04005430EE00A480169484604F0BB
:105080009FFD05D307484169484604F099FE02D2C6
:105090000120A0400543641C032CA6DB28468EE7B4
:1050A0006000002040A0000800B04C4554E3853F5C
:1050B00010B50446204600F00FF80346E01C00F04F
:1050C0000BF843EAC00083B2A01D00F005F843EAE4
:1050D000801083B2184610BD014691F90020002AC5
:1050E00001DD00201EE091F90020002A01DA0420F1
:1050F00018E091F90120002A01DD012012E091F968
:105100000120002A01DA05200CE091F90220002A92
:1051100001DD022006E091F90220002A01DA0620D2
:1051200000E00720704710B54FF44070FDF73AF9E2
:10513000FEF732FEFDF7E8FBFDF7D4F9FCF75AFF66
:1051400000F05AF9FDF7DCF8FCF7EEFBFCF746FC43
:10515000412201210846FDF72DFAFFF777FC0020D8
:1051600010BD704770B50446002624F001041848AD
:1051700090F8240008B1002070BD1548807A10B95D
:105180004FF0FF30F8E71248057C807A2040104944
:1051900008740846007CA04202D04FF0FF3600E0C1
:1051A000002614B90A48007D18B1012001F0FEFF65
:1051B00002E0002001F0FAFF3CB100F07BFC20B1DE
:1051C000034805744FF0FF30D6E73046D4E70000BF
:1051D000600000202DE9F04F99B004460D461646B8
:1051E0004FF07E574FF000084FF000094FF0000AD3
:1051F00012A813A918AB0EAACDE9001014A916A87D
:10520000FEF7BEFF18B1012019B0BDE8F08FBDF860
:105210004C0000F4807000287ED00E9804F0A4FCAE
:1052200083464FF09D4104F06DFB07460F9804F054
:105230009BFC83464FF09D4104F064FB8046109830
:1052400004F092FC83464FF09D4104F05BFB8146E5
:10525000119804F089FC83464FF09D4104F052FB05
:10526000824639464FF0804004F0DEFC4946059006
:1052700004F0DAFC414607904FF0404004F0D4FCC3
:105280005146059004F0D0FC0690079904F0CCFA42
:10529000834604F09DFACDE90801FEF743FA4FF08A
:1052A0006632544BCDE90A0103F0B8FFCDE90C0199
:1052B00003F07AFD206049464FF0804004F0B4FCD2
:1052C0004946029004F0B0FC414604904FF0404043
:1052D00004F0AAFC4146029004F0A6FC0390049955
:1052E00004F0AAFD83464FF07E5104F09DFA05902C
:1052F00004F06EFACDE9080139464FF0804004F021
:1053000093FC4146039004F08FFC494604904FF013
:10531000804004F089FC00E068E05146039004F00E
:1053200083FC8346049904F07FFA059004F050FA58
:10533000CDE90601DDE90823FEF73CFC4FF06632BB
:105340002C4BCDE90A0103F069FFCDE90C0103F014
:105350002BFD28605146504604F066FC49460490F7
:10536000484604F061FC41460390404604F05CFC72
:1053700039460190384604F057FC0090019904F03A
:1053800053FA0290039904F057FD8346049904F000
:1053900053FD059004F01CFACDE90801514638464A
:1053A00004F042FC49460490404604F03DFC039062
:1053B000049904F039FA4FF08041059004F034FC70
:1053C000834604F005FACDE90601DDE90823FEF77E
:1053D000F1FB4FF06632074BCDE90A0103F01EFFE7
:1053E000CDE90C0103F0E0FC306001E002200BE7A6
:1053F000002009E766A64C4070B50024FCF7DAFCF3
:1054000000F024F9002840D1782000F0FFFEC4B25B
:105410000CB1012070BD7820FFF7A4FEC4B20CB11E
:105420000220F7E7642000F0A3FEC4B20CB1032011
:10543000F0E7FEF799FEC4B20CB10420EAE7154884
:10544000FFF736FE0546FFF7E9F8C4B20CB10520B8
:10545000E0E740F27310FEF72FFDC4B20CB1062056
:10546000D8E76420FFF70AF8C4B20CB10720D1E7EF
:1054700001F052FE04460CB10820CBE7012000F0F9
:1054800073FDC4B21CB10920C4E70A20C2E70020A2
:10549000C0E700008C00002001461148407A30B17E
:1054A000012807D0022808D003280CD108E00220E8
:1054B00008700BE00420087008E00820087005E080
:1054C0001020087002E04FF0FF30704700BF044822
:1054D000C07C18B108784006000E08700020F4E780
:1054E0006000002001461348407A30B1012808D0FE
:1054F00002280AD0032810D10BE04FF48040088026
:105500000EE041F69C7008800AE04FF4805008805D
:1055100006E04FF40060088002E04FF0FF30704773
:1055200000BF0448C07C10B10888401008800020EB
:10553000F5E700006000002001460248007C08708A
:10554000002070476000002001460F48007A30B10B
:10555000012807D0022809D003280FD10AE0FA2039
:1055600008800EE04FF4FA7008800AE04FF47A7079
:10557000088006E04FF4FA60088002E0002008800E
:1055800000BF00BF002070476000002001460E48A9
:10559000007A30B1012807D0022808D003280CD1A6
:1055A00008E00A4808600BE00948086008E009487C
:1055B000086005E00848086002E04FF0FF307047DF
:1055C00000BF0020FBE70000600000200000034354
:1055D0000000834233330342333383410146124890
:1055E000C07A082817D2DFE800F01704070A0D1068
:1055F0001318BC20088013E06220088010E02A20E5
:1056000008800DE0142008800AE00A20088007E0E6
:105610000520088004E000BF00BF0020088000BF14
:1056200000BF0020704700006000002001460648CF
:1056300090F8240010B14FF0FF3070470248C08945
:1056400008800020F9E70000600000201CB58020E1
:105650008DF80000604A1268917C5F4A52681078A9
:105660006B460122FCF7C6FD10B14FF0FF301CBDA8
:105670006420FEF7BFFB00208DF80000564A126838
:10568000917C554A526810786B460122FCF7B2FDB6
:1056900010B14FF0FF30EAE74F4A1268917D4E4A51
:1056A000526810786B460622FCF7FEFC10B14FF0F2
:1056B000FF30DCE79DF80500C007400F9DF80310A0
:1056C00001F0010140EA41009DF8011001F00101E3
:1056D00040EA010474B1012C03D101213E48C17498
:1056E00027E0022C03D100213B48C17421E04FF098
:1056F000FF30BCE7384A1268D178374A52681078D0
:105700006B460122FCF7D0FC10B14FF0FF30AEE742
:105710009DF8000000F00F0414B94FF0FF30A6E729
:10572000042C03D101212C48C17402E000212A4835
:10573000C174FF2128488172FF2027490872FF2188
:1057400025484172C1724FF6FF71C181FF2101747A
:1057500081740121017380F82210002180F8231048
:10576000417501751630016041608160163880F81E
:10577000241080F82510C1844FF4FA6000F03CFC3E
:1057800010B14FF0FF3072E7022000F005FB10B1BE
:105790004FF0FF306BE72A2000F0A8FC10B14FF06B
:1057A000FF3064E7322000F0E3FC10B14FF0FF302F
:1057B0005DE70020FFF7D6FC10B14FF0FF3056E751
:1057C000002000F02BFB10B14FF0FF304FE700201E
:1057D00000F01CFD00204AE7600000202DE9F043A6
:1057E00085B005460E4690469946294890F8250012
:1057F00020B14FF0FF3005B0BDE8F08316B94FF08F
:10580000FF30F8E7002423E0281B102801DD1020DA
:1058100000E0281B87B232193946204600F05EFDB1
:1058200010B14FF0FF30E6E701AA3946204600F0FC
:1058300001F910B14FF0FF30DDE730193A4601A908
:10584000FAF7B2FE10B16FF00100D4E7E01984B2AC
:10585000AC42D9DB4FEA28208DF8000008F0FF00A9
:105860008DF801000A4A1268917E094A5268107840
:105870006B460222FCF7BEFC10B14FF0FF30BAE7D6
:105880000121034880F82510A0F826900020B2E7F7
:105890006000002038B50446282C02DD4FF0FF30B0
:1058A00038BDDCB9002000F0EBFB00208DF80000D3
:1058B00007208DF801002E4A1268917C2C4A52680C
:1058C00010786B460222FCF795FC10B14FF0FF30C8
:1058D000E6E70021264801750020E1E7012000F0FD
:1058E000CFFB20208DF80000012C06D100208DF880
:1058F0000100052000F0FAFB17E0052C06DC012072
:105900008DF80100052000F0F1FB0EE0142C06DC00
:1059100002208DF801000A2000F0E8FB05E00320DA
:105920008DF80100142000F0E1FB9DF80100072133
:1059300001EB8010C0B28DF801000D4A1268917C15
:105940000B4A526810786B460222FCF753FC10B1E8
:105950004FF0FF30A4E70821054881720021017350
:10596000012101750020FFF7FDFB002098E70000F2
:1059700060000020F8B504460F4616462C4890F803
:10598000240010B94FF0FF30F8BD2948807A10B9D3
:105990004FF0FF30F8E7264A1268917A244A52689D
:1059A00010786B460222FCF77FFB10B14FF0FF30FE
:1059B000EAE79DF801009DF8001040EA0125A542A4
:1059C00003DA00203070401EDEE719484068408846
:1059D000B5EB600F17DD164A1268517C144A526805
:1059E00010786B460122FCF75FFB10B14FF0FF30DF
:1059F000CAE79DF8000000F0100020B100F05AF84E
:105A00006FF00100C0E7E2B2094B1B68D97A084B7E
:105A10005B6818783B46FCF747FB10B14FF0FF304E
:105A2000B2E795FBF4F0401E30700020ACE70000B8
:105A300060000020F8B504460D46164616B94FF032
:105A4000FF30F8BD1A48807A10B94FF0FF30F8E700
:105A500020128DF80000E0B28DF801009DF80100E1
:105A60002844134949684989884202DD4FF0FF30D4
:105A7000E7E70F4A1268117E0D4A526810786B46AC
:105A80000222FCF7B7FB10B14FF0FF30D9E7EAB2C2
:105A9000074B1B68597D064B5B6818783346FCF74B
:105AA00003FB10B14FF0FF30CBE70020C9E7000047
:105AB0006000002008B57048807A10B94FF0FF30C0
:105AC00008BD002000906C4A1268D17B6A4A526877
:105AD00010786B460122FCF78DFB10B14FF0FF30C0
